{
  "contractName": "Lottery",
  "abi": [
    {
      "inputs": [],
      "payable": false,
      "stateMutability": "nonpayable",
      "type": "constructor"
    },
    {
      "anonymous": false,
      "inputs": [
        {
          "indexed": false,
          "internalType": "uint256",
          "name": "poolId",
          "type": "uint256"
        },
        {
          "indexed": false,
          "internalType": "address",
          "name": "playerAddress",
          "type": "address"
        }
      ],
      "name": "PlayerParticipated",
      "type": "event"
    },
    {
      "anonymous": false,
      "inputs": [
        {
          "indexed": false,
          "internalType": "uint256",
          "name": "id",
          "type": "uint256"
        },
        {
          "indexed": false,
          "internalType": "string",
          "name": "name",
          "type": "string"
        },
        {
          "indexed": false,
          "internalType": "address",
          "name": "owner",
          "type": "address"
        },
        {
          "indexed": false,
          "internalType": "uint256",
          "name": "price",
          "type": "uint256"
        },
        {
          "indexed": false,
          "internalType": "uint256",
          "name": "poolSize",
          "type": "uint256"
        }
      ],
      "name": "PoolCreated",
      "type": "event"
    },
    {
      "anonymous": false,
      "inputs": [
        {
          "indexed": false,
          "internalType": "uint256",
          "name": "poolId",
          "type": "uint256"
        },
        {
          "indexed": false,
          "internalType": "address payable",
          "name": "winnerAddr",
          "type": "address"
        }
      ],
      "name": "PoolEnded",
      "type": "event"
    },
    {
      "constant": true,
      "inputs": [],
      "name": "lotteryCount",
      "outputs": [
        {
          "internalType": "uint256",
          "name": "",
          "type": "uint256"
        }
      ],
      "payable": false,
      "stateMutability": "view",
      "type": "function"
    },
    {
      "constant": true,
      "inputs": [
        {
          "internalType": "uint256",
          "name": "",
          "type": "uint256"
        }
      ],
      "name": "lotteryPools",
      "outputs": [
        {
          "internalType": "uint256",
          "name": "id",
          "type": "uint256"
        },
        {
          "internalType": "string",
          "name": "name",
          "type": "string"
        },
        {
          "internalType": "address",
          "name": "owner",
          "type": "address"
        },
        {
          "internalType": "uint256",
          "name": "price",
          "type": "uint256"
        },
        {
          "internalType": "uint256",
          "name": "poolSize",
          "type": "uint256"
        },
        {
          "internalType": "address payable",
          "name": "winner",
          "type": "address"
        },
        {
          "internalType": "bool",
          "name": "alive",
          "type": "bool"
        }
      ],
      "payable": false,
      "stateMutability": "view",
      "type": "function"
    },
    {
      "constant": true,
      "inputs": [],
      "name": "owner",
      "outputs": [
        {
          "internalType": "address",
          "name": "",
          "type": "address"
        }
      ],
      "payable": false,
      "stateMutability": "view",
      "type": "function"
    },
    {
      "constant": false,
      "inputs": [
        {
          "internalType": "string",
          "name": "name",
          "type": "string"
        },
        {
          "internalType": "uint256",
          "name": "price",
          "type": "uint256"
        }
      ],
      "name": "createPool",
      "outputs": [],
      "payable": false,
      "stateMutability": "nonpayable",
      "type": "function"
    },
    {
      "constant": false,
      "inputs": [
        {
          "internalType": "uint256",
          "name": "poolId",
          "type": "uint256"
        }
      ],
      "name": "participate",
      "outputs": [],
      "payable": true,
      "stateMutability": "payable",
      "type": "function"
    },
    {
      "constant": true,
      "inputs": [
        {
          "internalType": "uint256",
          "name": "poolId",
          "type": "uint256"
        }
      ],
      "name": "getParticipants",
      "outputs": [
        {
          "internalType": "address payable[]",
          "name": "",
          "type": "address[]"
        }
      ],
      "payable": false,
      "stateMutability": "view",
      "type": "function"
    },
    {
      "constant": false,
      "inputs": [
        {
          "internalType": "uint256",
          "name": "poolId",
          "type": "uint256"
        }
      ],
      "name": "endPool",
      "outputs": [],
      "payable": false,
      "stateMutability": "nonpayable",
      "type": "function"
    },
    {
      "constant": true,
      "inputs": [
        {
          "internalType": "uint256",
          "name": "poolId",
          "type": "uint256"
        }
      ],
      "name": "getPoolSize",
      "outputs": [
        {
          "internalType": "uint256",
          "name": "",
          "type": "uint256"
        }
      ],
      "payable": false,
      "stateMutability": "view",
      "type": "function"
    }
  ],
  "bytecode": "0x6080604052600080553480156200001557600080fd5b50620000606040518060400160405280600a81526020017f466972737420506f6f6c00000000000000000000000000000000000000000000815250620186a06200006660201b60201c565b620004a9565b60008251116200007557600080fd5b600081116200008357600080fd5b6000808154809291906001019190505550606060405180610100016040528060005481526020018481526020013373ffffffffffffffffffffffffffffffffffffffff16815260200164e8d4a510008402815260200160008152602001828152602001600073ffffffffffffffffffffffffffffffffffffffff1681526020016001151581525060026000805481526020019081526020016000206000820151816000015560208201518160010190805190602001906200014692919062000325565b5060408201518160020160006101000a81548173ffffffffffffffffffffffffffffffffffffffff021916908373ffffffffffffffffffffffffffffffffffffffff160217905550606082015181600301556080820151816004015560a0820151816005019080519060200190620001c0929190620003ac565b5060c08201518160060160006101000a81548173ffffffffffffffffffffffffffffffffffffffff021916908373ffffffffffffffffffffffffffffffffffffffff16021790555060e08201518160060160146101000a81548160ff0219169083151502179055509050507fc2eb38b92efe5352ec9ae4f9fd0c23586592cefe873d311d073242a7e08b3b1d600054843364e8d4a510008602600060405180868152602001806020018573ffffffffffffffffffffffffffffffffffffffff1673ffffffffffffffffffffffffffffffffffffffff168152602001848152602001838152602001828103825286818151815260200191508051906020019080838360005b83811015620002e1578082015181840152602081019050620002c4565b50505050905090810190601f1680156200030f5780820380516001836020036101000a031916815260200191505b50965050505050505060405180910390a1505050565b828054600181600116156101000203166002900490600052602060002090601f016020900481019282601f106200036857805160ff191683800117855562000399565b8280016001018555821562000399579182015b82811115620003985782518255916020019190600101906200037b565b5b509050620003a891906200043b565b5090565b82805482825590600052602060002090810192821562000428579160200282015b82811115620004275782518260006101000a81548173ffffffffffffffffffffffffffffffffffffffff021916908373ffffffffffffffffffffffffffffffffffffffff16021790555091602001919060010190620003cd565b5b50905062000437919062000463565b5090565b6200046091905b808211156200045c57600081600090555060010162000442565b5090565b90565b620004a691905b80821115620004a257600081816101000a81549073ffffffffffffffffffffffffffffffffffffffff0219169055506001016200046a565b5090565b90565b610f4b80620004b96000396000f3fe60806040526004361061007b5760003560e01c80638da5cb5b1161004e5780638da5cb5b14610309578063c1e3bd3e14610360578063c6f6d9d9146103f0578063c964ee9f1461041b5761007b565b806326fc66ab1461008057806344ed3f58146101525780636595f73a1461028c578063845c9306146102db575b600080fd5b34801561008c57600080fd5b50610150600480360360408110156100a357600080fd5b81019080803590602001906401000000008111156100c057600080fd5b8201836020820111156100d257600080fd5b803590602001918460018302840111640100000000831117156100f457600080fd5b91908080601f016020809104026020016040519081016040528093929190818152602001838380828437600081840152601f19601f82011690508083019250505050505050919291929080359060200190929190505050610456565b005b34801561015e57600080fd5b5061018b6004803603602081101561017557600080fd5b810190808035906020019092919050505061070c565b60405180888152602001806020018773ffffffffffffffffffffffffffffffffffffffff1673ffffffffffffffffffffffffffffffffffffffff1681526020018681526020018581526020018473ffffffffffffffffffffffffffffffffffffffff1673ffffffffffffffffffffffffffffffffffffffff16815260200183151515158152602001828103825288818151815260200191508051906020019080838360005b8381101561024b578082015181840152602081019050610230565b50505050905090810190601f1680156102785780820380516001836020036101000a031916815260200191505b509850505050505050505060405180910390f35b34801561029857600080fd5b506102c5600480360360208110156102af57600080fd5b8101908080359060200190929190505050610833565b6040518082815260200191505060405180910390f35b610307600480360360208110156102f157600080fd5b8101908080359060200190929190505050610853565b005b34801561031557600080fd5b5061031e6109aa565b604051808273ffffffffffffffffffffffffffffffffffffffff1673ffffffffffffffffffffffffffffffffffffffff16815260200191505060405180910390f35b34801561036c57600080fd5b506103996004803603602081101561038357600080fd5b81019080803590602001909291905050506109d0565b6040518080602001828103825283818151815260200191508051906020019060200280838360005b838110156103dc5780820151818401526020810190506103c1565b505050509050019250505060405180910390f35b3480156103fc57600080fd5b50610405610a74565b6040518082815260200191505060405180910390f35b34801561042757600080fd5b506104546004803603602081101561043e57600080fd5b8101908080359060200190929190505050610a7a565b005b600082511161046457600080fd5b6000811161047157600080fd5b6000808154809291906001019190505550606060405180610100016040528060005481526020018481526020013373ffffffffffffffffffffffffffffffffffffffff16815260200164e8d4a510008402815260200160008152602001828152602001600073ffffffffffffffffffffffffffffffffffffffff168152602001600115158152506002600080548152602001908152602001600020600082015181600001556020820151816001019080519060200190610532929190610da4565b5060408201518160020160006101000a81548173ffffffffffffffffffffffffffffffffffffffff021916908373ffffffffffffffffffffffffffffffffffffffff160217905550606082015181600301556080820151816004015560a08201518160050190805190602001906105aa929190610e24565b5060c08201518160060160006101000a81548173ffffffffffffffffffffffffffffffffffffffff021916908373ffffffffffffffffffffffffffffffffffffffff16021790555060e08201518160060160146101000a81548160ff0219169083151502179055509050507fc2eb38b92efe5352ec9ae4f9fd0c23586592cefe873d311d073242a7e08b3b1d600054843364e8d4a510008602600060405180868152602001806020018573ffffffffffffffffffffffffffffffffffffffff1673ffffffffffffffffffffffffffffffffffffffff168152602001848152602001838152602001828103825286818151815260200191508051906020019080838360005b838110156106c95780820151818401526020810190506106ae565b50505050905090810190601f1680156106f65780820380516001836020036101000a031916815260200191505b50965050505050505060405180910390a1505050565b6002602052806000526040600020600091509050806000015490806001018054600181600116156101000203166002900480601f0160208091040260200160405190810160405280929190818152602001828054600181600116156101000203166002900480156107be5780601f10610793576101008083540402835291602001916107be565b820191906000526020600020905b8154815290600101906020018083116107a157829003601f168201915b5050505050908060020160009054906101000a900473ffffffffffffffffffffffffffffffffffffffff16908060030154908060040154908060060160009054906101000a900473ffffffffffffffffffffffffffffffffffffffff16908060060160149054906101000a900460ff16905087565b600060026000838152602001908152602001600020600401549050919050565b600115156002600083815260200190815260200160002060060160149054906101000a900460ff1615151461088757600080fd5b600260008281526020019081526020016000206003015434146108a957600080fd5b600260008281526020019081526020016000206005013390806001815401808255809150509060018203906000526020600020016000909192909190916101000a81548173ffffffffffffffffffffffffffffffffffffffff021916908373ffffffffffffffffffffffffffffffffffffffff160217905550507f3738b81f941073ca89334fb1874f79f33688d4f8a0bc30cfd292fb9893c3a535600260008381526020019081526020016000206005018054905033604051808381526020018273ffffffffffffffffffffffffffffffffffffffff1673ffffffffffffffffffffffffffffffffffffffff1681526020019250505060405180910390a150565b600160009054906101000a900473ffffffffffffffffffffffffffffffffffffffff1681565b606060026000838152602001908152602001600020600501805480602002602001604051908101604052809291908181526020018280548015610a6857602002820191906000526020600020905b8160009054906101000a900473ffffffffffffffffffffffffffffffffffffffff1673ffffffffffffffffffffffffffffffffffffffff1681526020019060010190808311610a1e575b50505050509050919050565b60005481565b3373ffffffffffffffffffffffffffffffffffffffff166002600083815260200190815260200160002060020160009054906101000a900473ffffffffffffffffffffffffffffffffffffffff1673ffffffffffffffffffffffffffffffffffffffff1614610ae857600080fd5b600115156002600083815260200190815260200160002060060160149054906101000a900460ff16151514610b1c57600080fd5b60006002600083815260200190815260200160002060050180549050610b4183610cec565b81610b4857fe5b0690506000600260008481526020019081526020016000206005018281548110610b6e57fe5b9060005260206000200160009054906101000a900473ffffffffffffffffffffffffffffffffffffffff1690508073ffffffffffffffffffffffffffffffffffffffff166108fc60026000868152602001908152602001600020600401549081150290604051600060405180830381858888f19350505050158015610bf7573d6000803e3d6000fd5b50806002600085815260200190815260200160002060060160006101000a81548173ffffffffffffffffffffffffffffffffffffffff021916908373ffffffffffffffffffffffffffffffffffffffff16021790555060006002600085815260200190815260200160002060060160146101000a81548160ff0219169083151502179055507fadd30798459d7e684aad71a3ebf8bbbfd6e42f509a027f7c86145d991fbbe7d08382604051808381526020018273ffffffffffffffffffffffffffffffffffffffff1673ffffffffffffffffffffffffffffffffffffffff1681526020019250505060405180910390a1505050565b6000444260026000858152602001908152602001600020600501604051602001808481526020018381526020018280548015610d7d57602002820191906000526020600020905b8160009054906101000a900473ffffffffffffffffffffffffffffffffffffffff1673ffffffffffffffffffffffffffffffffffffffff1681526020019060010190808311610d33575b505093505050506040516020818303038152906040528051906020012060001c9050919050565b828054600181600116156101000203166002900490600052602060002090601f016020900481019282601f10610de557805160ff1916838001178555610e13565b82800160010185558215610e13579182015b82811115610e12578251825591602001919060010190610df7565b5b509050610e209190610eae565b5090565b828054828255906000526020600020908101928215610e9d579160200282015b82811115610e9c5782518260006101000a81548173ffffffffffffffffffffffffffffffffffffffff021916908373ffffffffffffffffffffffffffffffffffffffff16021790555091602001919060010190610e44565b5b509050610eaa9190610ed3565b5090565b610ed091905b80821115610ecc576000816000905550600101610eb4565b5090565b90565b610f1391905b80821115610f0f57600081816101000a81549073ffffffffffffffffffffffffffffffffffffffff021916905550600101610ed9565b5090565b9056fea265627a7a723158206316cf1d7233780dff0206f77e8bc0feda786313f68ea6d219e01c5a3974fada64736f6c63430005100032",
  "source": "pragma solidity >=0.4.21 <0.7.0;\n\ncontract Lottery {\n    uint public lotteryCount = 0;\n    address public owner;\n\n    struct LotteryPool{\n        uint id;\n        string name;\n        address owner;\n        uint price;\n        uint poolSize;\n        address payable[] participants;\n        address payable winner;\n        bool alive;\n    }    \n\n    mapping (uint => LotteryPool) public lotteryPools;\n\n    event PoolCreated(        \n        uint id,\n        string name,\n        address owner,\n        uint price,\n        uint poolSize\n        );\n\n    function createPool(string memory name, uint price) public {\n        require(bytes(name).length > 0);\n        require(price > 0);\n        lotteryCount++;\n        address payable[] memory participants;\n        lotteryPools[lotteryCount] = LotteryPool(lotteryCount, name, msg.sender, price * 1 szabo, 0, participants, address(0) ,true);\n        emit PoolCreated(lotteryCount, name, msg.sender, price * 1 szabo, 0);\n    }\n\n    constructor() public{\n        createPool(\"First Pool\", 100000);\n    }\n\n    event PlayerParticipated(\n        uint poolId,\n        address playerAddress\n    );\n\n    function participate(uint poolId) public payable {\n        require(lotteryPools[poolId].alive == true);\n        require(msg.value == lotteryPools[poolId].price );\n        lotteryPools[poolId].participants.push(msg.sender);\n        emit PlayerParticipated(lotteryPools[poolId].participants.length, msg.sender);\n    }\n\n    function getParticipants(uint poolId) public view returns(address payable[] memory){\n        return lotteryPools[poolId].participants;\n    }\n\n    event PoolEnded(\n        uint poolId,\n        address payable winnerAddr\n    );\n\n\n    function random(uint poolId) private view returns(uint){\n        return uint(keccak256(abi.encodePacked(block.difficulty, now, lotteryPools[poolId].participants)));\n    }\n\n    function endPool(uint poolId) public {\n        require(lotteryPools[poolId].owner == msg.sender);\n        require(lotteryPools[poolId].alive == true);\n        uint index = random(poolId) % lotteryPools[poolId].participants.length;\n        address payable winnderAddr = lotteryPools[poolId].participants[index];\n        winnderAddr.transfer(lotteryPools[poolId].poolSize);\n        lotteryPools[poolId].winner = winnderAddr;\n        lotteryPools[poolId].alive = false;\n        emit PoolEnded(poolId, winnderAddr);\n    }\n\n\n    function getPoolSize(uint poolId) public view returns(uint){\n        return lotteryPools[poolId].poolSize;\n    }\n\n    // function getPoolList() public view returns(Lottery[] memory) {\n    //     return lotteryPools;\n    // }\n\n}",
  "sourcePath": "/Users/franco/Documents/Blockchain/lottery-smart-contract/contracts/Lottery.sol",
  "compiler": {
    "name": "solc",
    "version": "0.5.16+commit.9c3226ce.Emscripten.clang"
  },
  "schemaVersion": "3.4.1",
  "updatedAt": "2021-09-12T08:21:04.259Z",
  "networkType": "ethereum",
  "devdoc": {
    "methods": {}
  },
  "userdoc": {
    "methods": {}
  }
}